:1000000010080020ED110000D7040000CB10000004
:1000100000000000000000000000000000000000E0
:100020000000000000000000000000008712000037
:100030000000000000000000931200000D130000FB
:100040000F1300001113000013130000151300001C
:100050001713000000000000191300001B1300001C
:100060001D1300001F1300002113000023130000C4
:100070002513000027130000291300002B13000094
:100080002D1300002F130000311300003313000064
:100090003513000037130000391300003B13000034
:1000A0003D1300003F1300000000000000000000AE
:1000B0000000000000000000000000000000000040
:1000C0000121854A04234343D150704710B4C9B27B
:1000D0008A00814B042444431A5110BC704700B578
:1000E000C0B27F4908607F4909680129FBD100211E
:1000F0007C4A116000BD70B504000026A55D761C29
:10010000EDB2002D07D02800C0B2FFF7E8FFA05DD8
:100110000500761CF4E770BDF4B506000C001F0066
:10012000069DE4B22000FFF7CBFF0021FFB23800AC
:10013000FFF7CCFFE4B26C480460FFB26B48076085
:10014000EDB2002D12D0F6B23000FFF7B9FF00215A
:1001500068460078FFF7BAFF68460078644908608F
:10016000F6B2644806600120634908606348644948
:100170000860042063490860012063490860012089
:1001800062490860002055490860F1BDF0B585B0AE
:1001900006000F0015000A24300039000022002359
:1001A00000F0BEF80AD22D20FFF799FF0020584931
:1001B00032003B0000F0CDF806000F000020694639
:1001C00008726846007A2900C9B2884207D20A201C
:1001D000444368466946097A491C0172F1E72000E8
:1001E00000F084F9009001913000390000F08EF9A0
:1001F00000F07CF902000B003000390000F000FA3A
:10020000009A019B00F0A5F800F080F90390039894
:100210000A2100F06CFA052902D303980A300390F2
:10022000601E0399884209D200203A4932003B00FF
:1002300000F083F906000F00002003903000390021
:1002400000F064F900F028F8EDB2002D22D02C2047
:10025000FFF745FF2000642100F049FA04000398ED
:100260000A2100F044FA03900398210000F03FFABD
:1002700000280CD1EDB2022D09DB3020FFF72FFF53
:1002800020000A2100F033FA04006D1EECE7039809
:1002900000F002F805B0F0BD70B5050000241E485E
:1002A000066828000A2100F022FA705C1B49E4B2BB
:1002B000085528000A2100F01AFA0500641C002DD8
:1002C000EDD1641E1548E4B2005DFFF708FFE4B20B
:1002D000002CF6D170BD000000070050082100403E
:1002E0001C2500401C2100400C2500401425004026
:1002F00010250040082500406C25004000E0D70193
:100300002425004000250040082000400020004037
:100310000000F0BF0000F03F000000204408002073
:1003200030B4012464054D00EC420BD85D00EC4272
:1003300008D80C001C4364000443144304D29942BF
:1003400000D1904230BC7047FCD08B42FAD182423F
:10035000F8E7F0B50E005E400125ED072E40B446EB
:10036000AE0ADF184C18F44208D2F7420ED2640DE0
:1003700001D07F0D12D100206146F0BD05D1F742BA
:1003800001D87F0D05D10020C143F0BDFBD1640D24
:10039000F9D00020C143490549088FE0E419C9029A
:1003A000DB0229432B43DB0A460DC00231438E4654
:1003B00030B487B295B27D432E0CADB2140C7C43A1
:1003C000A419260C240425439CB27C43A419190CBF
:1003D0007943270CC919A4B20F043C43090C000C43
:1003E00097B247432E0CBE193543ADB2170C4743A5
:1003F000360CBF19A6B2BF193E043543240C3E0C7F
:1004000036199FB24743BF19BCB23E0C89191F0C65
:1004100047437F183E043443390C704680B297B28C
:1004200047432E0CBE193543ADB2170C4743360C6B
:10043000BF19A6B2BF193E043543240C3E0C361931
:100440009FB24743BF19BCB23E0C89191F0C4743EA
:100450007F183E043443390C77463F0C90B2784302
:100460002E0C80190604ADB22E43050CA0B22D1837
:10047000120C7A435019020C80B2240CA4189AB2C0
:100480007A43121914042043120C89181B0C7B4365
:10049000C91830BCEF0A394203D1B619404149416D
:1004A000641E6F12BF0DE41B0BDBFF19BC4211DA97
:1004B000240500274208AE41784161416646314338
:1004C000F0BD641C05D1401C6141CF0201D3490835
:1004D000F4E750E75DE7FEE7010009D5F446404246
:1004E00000F006F80122D20711436047010000BF67
:1004F00042221201D21E004207D002D4521E00181E
:10050000FCD5C10A40051205891870474A1812D255
:10051000400DC90208430121C9070843520D40217B
:100520000901521A521C06D452421F3201D4D04043
:100530007047C017704700207047F0B40125ED07E1
:100540000F005F404FD48B4200D1824205D98446D0
:10055000100062468C4619006346DF184C18640D83
:100560007F0D3AD0661C760537D0E61B352E34DC7D
:10057000DB022B43DB0A0C0DC9022943C912202ED2
:100580000DDB1700203E06D01F00F741F3405F400F
:100590000026012A7741C01871410DD217E01700DB
:1005A000F741F2405740F3415A40B340F3405A40BC
:1005B0000026801859410AD3A21C52050FD0C20749
:1005C000012F724117004008CB0718434908641CEB
:1005D00024054208AF4170416141F0BC7047641C82
:1005E00021050020F9E76B4010E06B40ABE7F742D4
:1005F000F3D1E943F1E72442EFD100200021ECE7F9
:10060000F0B40125ED070F005F40EED40C00871A0F
:100610009C4105D2C01BA141D219634169406B4086
:10062000AE0ADF184C18F442E1D2640D7F0DE2D01F
:10063000E61B362ED1DCDB022B43DB0AA4460C0D75
:10064000C9022943C90A012E28DC04D1D607520861
:10065000DF073A435B08EF0A76429041994114D094
:1006600039423BD1B61940414941761C394204D147
:10067000761C001849413942FAD0B9436746B7425F
:1006800008D9A41B24052143A7E70042EAD136423A
:10069000E8D1A2E7E40AE10700209EE7202E0BDD67
:1006A000203E1F00F340F7415F40012A00225741DE
:1006B0007E42984191410BE01700F741F2405740CC
:1006C000F3415A40B340F3405A407E429041994131
:1006D0000A0303D2641EB619404149410027641E33
:1006E00024054208AE4178416141F0BC70470022C8
:1006F000030A8B420BD203098B4219D243088B4267
:100700002ED2411A00D20146524110467047FF22B4
:1007100009023FD012068B4205D3121209028B4206
:1007200001D31212090203098B4219D300E0090A0E
:10073000C3098B4201D3CB01C01A524183098B42BA
:1007400001D38B01C01A524143098B4201D34B01A3
:10075000C01A524103098B4201D30B01C01A524106
:10076000C3088B4201D3CB00C01A524183088B428D
:1007700001D38B00C01A524143088B4201D34B0076
:10078000C01A5241884200D3401A5241CFD201468A
:100790001046704708B5C046C04608BD01217E4AD4
:1007A00004234343D1507047F0B585B0002000903A
:1007B0000B230A2209210820FFF7AEFC00240025A4
:1007C0000020694608710820FFF7E8FF0020604913
:1007D000086001208021C90508605D480068002884
:1007E000FBD05C48FFF787FC00F011F967485A49D5
:1007F000086000205A49086001205849086058489C
:1008000000680028FBD000205749086001205549A6
:100810000860554800680028FBD05448006801284B
:1008200000D089E059480078694688716846574980
:1008300089784171694605200856012864D15348DA
:10084000C078070051480079000206006846B919CF
:1008500001814748FFF74FFC03220092029800B243
:10086000FFF73AFE45A20CCAFFF773FD009AFFF7A7
:100870008DFC464840790700444880790002060014
:10088000B81902A948803B48FFF735FC03220092C3
:1008900002A80221405EFFF71FFE38A20CCAFFF734
:1008A00058FD009AFFF772FC3848C07907003748B6
:1008B000007A00020600B81902A988802E48FFF7C6
:1008C0001AFC0322009202A80421405EFFF704FEF6
:1008D0002AA20CCAFFF73DFD009AFFF757FC02A8B9
:1008E0000421425E02A80221415E029800B200F09B
:1008F00025F904000D002348FFF7FDFB032220002B
:100900002900FFF743FC14E0694605200856022839
:100910000FD11D48FFF7EFFB68461C49C9780171EC
:100920000022009268460079FFF7E0FD009AFFF789
:100930002DFC1748FFF7DFFB002018490860012055
:100940001449086015480068002800D04EE7F9E710
:1009500000010040A81200000415004004100040EF
:1009600000110040081000400C110040001400402D
:10097000E4120000EC120000F4120000D5CC5A0A78
:1009800048FB2F3FFC120000B412000010080020AA
:100990000413000010100040000700501011004028
:1009A00010B50100002000231A00D2B2082A0CDA88
:1009B000C9B20B0013411C00E407E40F07239B1A84
:1009C0009C4004432000521CEFE7C0B210BDF8B5B4
:1009D0000400002600200500EDB2042D15DA0821E0
:1009E00069432000C84007003800C0B2FFF7D8FFB5
:1009F0000700FFB21820EDB208216943411A380000
:100A00008840304306006D1CE6E73000F2BD38B583
:100A1000D820374908600720364908600220364947
:100A20000860C320FFF7BCFF0400C220FFF7B8FF37
:100A30000500C120FFF7B4FFE4B22106EDB22A049D
:100A40000A43C0B204021443C020FFF7A9FF2043A9
:100A50002A490860C720FFF7A3FF0500C620FFF75B
:100A60009FFF0400C520FFF79BFFEDB22906E4B20B
:100A700022040A43C0B204021443C420FFF790FFCB
:100A800020431F4908601F48FFF7A1FF1E49086067
:100A90001E48FFF79CFF1E49086000201D490860A2
:100AA00001201D49086000201C4908601C481D49A0
:100AB000086002201C4908601B4800688007800FFE
:100AC000022806D119481A4908601A481A490860CC
:100AD0000CE0154800688007800F012806D1FF2030
:100AE00013490860FF2008301349086031BD000039
:100AF0000C1500400815004010150040241500405A
:100B000028150040674523011C150040EFCDAB8937
:100B1000201500402C1500403015004014150040F1
:100B20000B0B04011815004034150040FFFF0000B6
:100B30003C1500402110010038150040F7B582B087
:100B4000029800B2FFF7C8FC04000D00039800B241
:100B5000FFF7C2FC6A4603C2083A049800B2FFF7E6
:100B6000BBFC06000F002000290022002B00FFF72D
:100B7000F0FB04000D00684603C86A460CCAFFF784
:100B8000E8FB22002B00FFF7D8FC04000D0030002A
:100B9000390032003B00FFF7DCFB22002B00FFF79F
:100BA000CCFC00F01DF804000D00049800B2FFF723
:100BB00093FC22002B0000F072F800F0D1F8002224
:100BC000044BFFF7C6FB04A20CCA00F068F805B09E
:100BD000F0BD000000806640F1D4C853FB210940FD
:100BE000012252054B1850D2D3424DD25B0D4BD04F
:100BF00030B41C05A14355082943D40AE41E1B192F
:100C00005B0801D3001849411B059C466C19091B60
:100C10000018494100184941641900239202491BF8
:100C200007D46D081DD2091B641900184941491BDE
:100C3000F7D56D080AD20919641B00184941491BF0
:100C4000EFD56D08F7D301E0520817D0C018614105
:100C50009B1AAC4100184941801AA941F4D45208AA
:100C60000AD0C01AA1419B186C4100184941801A52
:100C7000A941E9D45208F4D15B1C6C415808E20741
:100C800010436108614430BC70470020590DFBD00F
:100C9000C943D342F8D802B500F0E2F802BDF0B47F
:100CA0000E005E400125ED072E40B446AE0ADF1867
:100CB0004C18F4423BD2F74241D2640D43D07F0D31
:100CC00038D0E41BC902DB0229432B43CF0ADB0ADD
:100CD0000600B61A9F4104D2641EB6197F41B618A9
:100CE0005F416812800D24180018844222DAE80C53
:100CF0000021B6197F41B61A9F4102D2B6185F4152
:100D00003F1C40414941F4D3241C21DD2405B61980
:100D10007F41B61A9F4105D33743C60737430026A4
:100D2000012F7041614166463143F0BC7047FCD1F0
:100D3000F74205D20020C14349054908F3E704D032
:100D40000020C143F1E77F0DFAD000206146ECE7B7
:100D50002442FAD1401C61410F03F6D30020E2E7A0
:100D6000DCB506000F007900490D3A4A914206D0E1
:100D7000002902D00020C04309E0002007E038032A
:100D8000000B3100014301D0022000E001200228C5
:100D900002D130003900DCBD3000390000220023D0
:100DA000FFF7BEFA04D2802000064740042400E08A
:100DB00002243000390028A20CCAFFF7B1FA1AD277
:100DC0000020234932003B00FFF71AFC00900191FC
:100DD00000201F4932003B00FFF7AFFB009A019B48
:100DE000FFF7B7FAFFF7FCFE6A4603C2300039008E
:100DF0006A460CCA1DE00122154BFFF791FA1ED27C
:100E00000020194632003B00FFF7FAFB00900191E9
:100E100000200F4932003B00FFF78FFB009A019B37
:100E2000FFF797FAFFF7DCFE02226240140032005F
:100E30003B00FFF734FF220000F036F8DCBD00F085
:100E400023F9212101600020C0434108DCBD00BF1F
:100E50000000F03FFF070000CE3B7F669EA0E63F0C
:100E60001FB500F011F9212101601FBD70B40121EF
:100E7000002213E00468001D0C4202D04D466D1E96
:100E800064192260241D1B1F042BFAD225009E0723
:100E900001D52280AD1C0B4000D02A700368001DD4
:100EA000002BE7D170BC7047F7B504000D0050A2CD
:100EB0000CCA00F0F1F81DD850A003C822002B0086
:100EC000FFF747FA00224C4BFFF737FB06000F00F5
:100ED0004AA003C822002B00FFF72FFB02000B00E3
:100EE00030003900FFF7DBFE04000D0002980121FD
:100EF00001430291200029000022424BFFF710FA23
:100F000005D30122F9239B0500F0C6F853D822002F
:100F10002B00FFF71EFA06000F0032003B002000F6
:100F20002900FFF716FA0090019137A003C832009C
:100F30003B00FFF70EFA36A20CCAFFF7FEFA3200AA
:100F40003B00FFF706FA34A20CCAFFF7F6FA009A44
:100F5000019BFFF7FEF922002B00FFF7EEFA0400D9
:100F60000D002FA003C832003B00FFF7F2F92EA2BC
:100F70000CCAFFF7E2FA32003B00FFF7EAF92CA2B5
:100F80000CCAFFF7DAFA32003B00FFF7E2F92AA2B7
:100F90000CCAFFF7D2FA32003B00FFF7DAF9002261
:100FA000274BFFF7CAFA02000B0020002900FFF7C9
:100FB00076FE04000D000298800702D5802000060E
:100FC00045400298400709D01FA1800E081803C8A9
:100FD00022002B00FFF7B1FA04000D000298000771
:100FE00002D58020000645402000290003B0F0BD56
:100FF00057CD9E5E1426D13F0000F0BFAA4C58E8A2
:101000007AB6FB3F000040BE845D57134B57B03F9C
:10101000B2934C19ED5EE43FBEDE02B90240F83FE8
:10102000DE39028FC7C0743F8AAB1283000CC83F01
:1010300024D7E508B6D8F03F0F34580E5895FD3F39
:101040000000F03F00000000000000000000000071
:1010500066732D3852C1E03F182D4454FB21F93FEF
:1010600066732D3852C1F03F182D4454FB21F93FCF
:1010700066732D3852C10040182D4454FB2109409D
:101080003FD038C6A6F1044080B50248C046C046ED
:1010900002BD00000800002030B4012464054D00AA
:1010A000EC420BD85D00EC4208D80C001C436400F5
:1010B0000443144304D28B4200D1824230BC7047B7
:1010C000FCD09942FAD19042F8E7FEE780B500F0F3
:1010D00011F8002806D0314831490860802000020C
:1010E0003049086000F03EF8002802D001202E4967
:1010F000086001BD00B52D480078C0B201282FD18D
:101100002B4800780007000F002829D129480078D3
:10111000F0210140002907D127480078F021014043
:10112000002901D101201CE022480078F021014073
:10113000102907D120480078F0210140002901D171
:1011400001200EE01B480078F0210140302907D132
:1011500019480078F0210140002901D1012000E068
:10116000002000BD00B511480078C0B2012813D19D
:101170000F4800780007000F00280DD10D480078B7
:10118000F0210140402907D10B480078F0210140AF
:10119000002901D1012000E0002000BDDFFF07C0D1
:1011A00004050040186C004008060040E00F00F005
:1011B000E40F00F0E80F00F0EC0F00F030B4012174
:1011C0000268001D002A0FD00368C3184468083065
:1011D0000C4202D04D466D1E64191D6825601B1D12
:1011E000241D121FECD0F8E730BC704703210648DD
:1011F00002680A430260054802680A430260044824
:101200008047044800470000240500405405004082
:10121000CD100000CD12000010B5074979441831F7
:10122000064C7C44163404E0081D0A688918884777
:101230000100A142F8D110BD080000002800000004
:101240002DFCFFFF540000001008002000000000EB
:101250006DFFFFFF0C000000800000000000002078
:10126000000000000120C046002801D0FFF7D4FF95
:10127000002000BF00BFFFF797FA00F000F880B52C
:1012800000F002F801BDFEE70746384600F002F81C
:10129000FBE7FEE780B500BF00BF024A110018203F
:1012A000ABBEFBE7260002000A0D53746172742086
:1012B0003A0A0D00436F756E74203D200000000057
:1012C00030313233343536373839000000BF00BF93
:1012D00000BF00BFFFF7C6FFC01200000024F400EB
:1012E0000000000058203D2000000000203B205955
:1012F000203D2000203B205A203D2000203B206143
:10130000203D20002020202020200D00FEE7FEE7C9
:10131000FEE7FEE7FEE7FEE7FEE7FEE7FEE7FEE7A5
:10132000FEE7FEE7FEE7FEE7FEE7FEE7FEE7FEE795
:10133000FEE7FEE7FEE7FEE7FEE7FEE7FEE7FEE785
:04000005000012CD18
:00000001FF
