:10000000080800208D0C0000D3030000F30300005B
:1000100000000000000000000000000000000000E0
:100020000000000000000000000000002F0B000096
:100030000000000000000000270D0000330D00004C
:10004000950D0000970D0000990D00009B0D00001C
:100050009D0D0000000000009F0D0000A10D00009C
:10006000A30D0000A50D0000A70D0000A90D0000C4
:10007000AB0D0000AD0D0000AF0D0000B10D000094
:10008000B30D0000B50D0000B70D0000B90D000064
:10009000BB0D0000BD0D0000BF0D0000C10D000034
:1000A000C30D0000C50D00000000000000000000AE
:1000B0000000000000000000000000000000000040
:1000C00001217D4A04234343D150704710B4C9B283
:1000D0008A00794B042444431A5110BC704700B580
:1000E000C0B277490860774909680129FBD100212E
:1000F000744A116000BD70B504000026A55D761C31
:10010000EDB2002D07D02800C0B2FFF7E8FFA05DD8
:100110000500761CF4E770BDF4B506000C001F0066
:10012000069DE4B22000FFF7CBFF0021FFB23800AC
:10013000FFF7CCFFE4B264480460FFB26348076095
:10014000EDB2002D12D0F6B23000FFF7B9FF00215A
:1001500068460078FFF7BAFF684600785C49086097
:10016000F6B25C48066001205B4908605B485C4968
:10017000086004205B49086001205B490860012099
:100180005A49086000204D490860F1BDF0B583B0C0
:1001900005000E000A242800002100F0AFF807D265
:1001A0002D20FFF79CFF5248290000F0BAF8050007
:1001B000002069460871684600793100C9B288425A
:1001C00007D20A204443684669460979491C0171EF
:1001D000F1E7200000F0FEF801000091280000F097
:1001E00009F900F0F7F80100280000F04EF9009935
:1001F00000F097F800F0FEF8070038000A2100F040
:100200009CF9052900D30A37601EB84207D2FE20A8
:100210008005290000F001F90500002007002800F2
:1002200000F0E8F800F027F8F6B2002E22D02C20DB
:10023000FFF755FF2000642100F07FF9040038002B
:100240000A2100F07AF907003800210000F075F962
:1002500000280CD1F6B2022E09DB3020FFF73FFF59
:1002600020000A2100F069F90400761EECE738004E
:1002700000F001F8F7BD70B5050000241D480668C0
:1002800028000A2100F059F9705C1B49E4B20855B6
:1002900028000A2100F051F90500641C002DEDD161
:1002A000641E1548E4B2005DFFF719FFE4B2002CAC
:1002B000F6D170BD0000000000070050082100408A
:1002C0001C2500401C2100400C2500401425004046
:1002D00010250040082500406C25004000E0D701B3
:1002E0002425004000250040082000400020004058
:1002F000000080BF000000203C0800200CB4012258
:1003000012060318DA4207D84B18DA4204D8020062
:100310000A43921802D288420CBC7047FCD081423A
:10032000FAE730B405004D400122D20715404B18C2
:100330000418240E2ED01B0E32D0FF2C34D0FF2BED
:100340003AD0E4180002090210431143000A090AD6
:100350009446C2B24A43000AC3B24B43000A484320
:10036000110A5B181A43D2B2190A091801D44918A4
:10037000641E080A7F3C23DBFE2C08DAE40509062C
:100380001143634699416041284330BC7047FF20C8
:10039000C005F9E728001B0EFF2BF6D1D043F4E788
:1003A0002800FF2CF1D1F9E74002F7D1FF2B01D152
:1003B0004902F3D1E005E7E7D8054902E4D0EDE7CB
:1003C00043020020641CDFD15B129B1CDCD9D805E2
:1003D000DAE7FEE79D2102000AD002D4491E9218F6
:1003E000FCD5C905100A1206524100D3012A484122
:1003F0007047FEE700180ED2010E7F390BD4494238
:100400001F3105D4C0010122D2071043C8407047F4
:100410000020401E7047002070470122D2070300D1
:100420004B402ED4431A01D2C01AC91830B44B180D
:100430000418240E1B0E22D0FF2C20D0E31A182BF8
:100440001DDC09021143C40D641E000210439446D2
:100450001925ED1A0A00AA40D940451801D36D08A4
:10046000A41CE405D209280A2D062A436546AA41A0
:10047000604103181B0EFF2B01D3C00DC00530BC1B
:100480007047514006E05140CCE70122D2070300FB
:100490004B40F8D4431A03D2C01AC91850405140F7
:1004A00030B44B18090211430418240E1B0E40D01F
:1004B000FF2C3AD025009D410BD31ED8C50D40021C
:1004C000401A0BD3ED050100400AC905914168416E
:1004D000D5E7C50D40024918401AD0D00121400887
:1004E000491C0018FCD58C4204D36D1A000AED0596
:1004F0004019C4E7E8051040C1E7182DBFDCAC1C6B
:100500000D00E140E5414D40012D4941C40D00027F
:100510001043451A01D46D199543641EE405280A59
:100520002D069541604130BC7047FF2BA7D1D843C1
:10053000A5E72442A3D10020A1E70022030A8B42B1
:100540000BD203098B4219D243088B422ED2411A97
:1005500000D20146524110467047FF2209023FD0A7
:1005600012068B4205D3121209028B4201D31212DA
:10057000090203098B4219D300E0090AC3098B421F
:1005800001D3CB01C01A524183098B4201D38B01A5
:10059000C01A524143098B4201D34B01C01A524148
:1005A00003098B4201D30B01C01A5241C3088B428D
:1005B00001D3CB00C01A524183088B4201D38B0078
:1005C000C01A524143088B4201D34B00C01A52411A
:1005D000884200D3401A5241CFD20146104670479C
:1005E00008B5C046C04608BD10B501000020002374
:1005F0001A00D2B2082A0CDAC9B20B0013411C004F
:10060000E407E40F07239B1A9C4004432000521C7C
:10061000EFE7C0B210BDF8B50400002600200500C9
:10062000EDB2042D15DA082169432000C840070007
:100630003800C0B2FFF7D8FF0700FFB21820EDB2B4
:1006400008216943411A38008840304306006D1C78
:10065000E6E73000F2BD38B5D820374908600720FA
:1006600036490860022036490860C320FFF7BCFF06
:100670000400C220FFF7B8FF0500C120FFF7B4FF58
:10068000E4B22106EDB22A040A43C0B204021443C4
:10069000C020FFF7A9FF20432A490860C720FFF7C1
:1006A000A3FF0500C620FFF79FFF0400C520FFF74A
:1006B0009BFFEDB22906E4B222040A43C0B2040251
:1006C0001443C420FFF790FF20431F4908601F48D0
:1006D000FFF7A1FF1E4908601E48FFF79CFF1E4957
:1006E000086000201D49086001201D4908600020A5
:1006F0001C4908601C481D49086002201C4908600C
:100700001B4800688007800F022806D119481A4943
:1007100008601A481A4908600CE01548006880070C
:10072000800F012806D1FF2013490860FF20083000
:100730001349086031BD00000C1500400815004049
:10074000101500402415004028150040674523017E
:100750001C150040EFCDAB89201500402C15004042
:1007600030150040141500400B0B04011815004013
:1007700034150040FFFF00003C150040211001002F
:10078000381500400121624A04234343D150704789
:10079000F8B5002000900B230A2209210820FFF75A
:1007A000BBFC0820FFF7EEFF00204849086001204D
:1007B0008021C9050860454800680028FBD04448EE
:1007C000FFF799FCFFF747FF4B48424908600020BC
:1007D00042490860012040490860404800680028FC
:1007E000FBD000203F49086001203D4908603D489A
:1007F00000680028FBD03C480068012859D13E48D9
:10080000807806003C48C07800020500701904009A
:100810003648FFF770FC03210F0024B2200000F0DF
:100820007BF837A20CCA00F08FF800F04FF93900BE
:10083000FFF7ACFC2FA0FFF75EFC2F480079060005
:100840002D48407900020500701904002848FFF780
:1008500052FC03210F0024B2200000F05DF828A212
:100860000CCA00F071F800F031F93900FFF78EFC86
:1008700020A0FFF740FC2048807906001E48C07980
:1008800000020500701904001C48FFF734FC032126
:100890000F0024B2200000F03FF819A20CCA00F0AB
:1008A00053F800F013F93900FFF770FC1648FFF712
:1008B00022FC0020174908600120144908601548EF
:1008C0000068002800D07FE7F9E700000001004041
:1008D000480D0000041500400410004000110040C5
:1008E000081000400C110040001400406C0D000086
:1008F000740D0000202C2000080800207C0D000052
:10090000D5CC5A0A48FB2F3F840D00001010004040
:100910000007005010110040010007D5F446404286
:1009200000F004F80122D20711436047422212016D
:10093000D21E004207D002D4521E0018FCD5C10AB4
:100940004005120589187047F0B50E005E4001257C
:10095000ED072E40B446AE0ADF184C18F44208D218
:10096000F7420ED2640D01D07F0D12D100206146F6
:10097000F0BD05D1F74201D87F0D05D10020C1435C
:10098000F0BDFBD1640DF9D00020C14349054908F1
:100990008FE0E419C902DB0229432B43DB0A460D31
:1009A000C00231438E4630B487B295B27D432E0CDF
:1009B000ADB2140C7C43A419260C240425439CB22C
:1009C0007C43A419190C7943270CC919A4B20F044C
:1009D0003C43090C000C97B247432E0CBE1935431B
:1009E000ADB2170C4743360CBF19A6B2BF193E046F
:1009F0003543240C3E0C36199FB24743BF19BCB295
:100A00003E0C89191F0C47437F183E043443390CB0
:100A1000704680B297B247432E0CBE193543ADB233
:100A2000170C4743360CBF19A6B2BF193E04354315
:100A3000240C3E0C36199FB24743BF19BCB23E0C82
:100A400089191F0C47437F183E043443390C7746FD
:100A50003F0C90B278432E0C80190604ADB22E43A1
:100A6000050CA0B22D18120C7A435019020C80B25A
:100A7000240CA4189AB27A43121914042043120CBD
:100A800089181B0C7B43C91830BCEF0A394203D1CB
:100A9000B61940414941641E6F12BF0DE41B0BDBC8
:100AA000FF19BC4211DA240500274208AE41784103
:100AB000614166463143F0BD641C05D1401C614173
:100AC000CF0201D34908F4E750E75DE70122520560
:100AD0004B18DA4201D9581570475B0D0722D20135
:100AE0009B1A10D9FF2B1DD2DB050122D2070A4029
:100AF00013430903020D1143490AC200524100D9B0
:100B0000491CC81870470AD1800A0A0302435212CE
:100B1000921C04D9D3070B40D00518437047C80F67
:100B2000C0077047C80F0002FF30C0057047FEE7DE
:100B300080B500F011F8002806D03148314908602E
:100B4000802000023049086000F03EF8002802D002
:100B500001202E49086001BD00B52D480078C0B2C3
:100B600001282FD12B4800780007000F002829D139
:100B700029480078F0210140002907D12748007852
:100B8000F0210140002901D101201CE02248007819
:100B9000F0210140102907D120480078F0210140C0
:100BA000002901D101200EE01B480078F02101400E
:100BB000302907D119480078F0210140002901D1DE
:100BC000012000E0002000BD00B511480078C0B24F
:100BD000012813D10F4800780007000F00280DD11D
:100BE0000D480078F0210140402907D10B480078DA
:100BF000F0210140002901D1012000E0002000BDCA
:100C0000DFFF07C004050040186C004008060040E4
:100C1000E00F00F0E40F00F0E80F00F0EC0F00F040
:100C200070B40121002213E00468001D0C4202D0C0
:100C30004D466D1E64192260241D1B1F042BFAD221
:100C400025009E0701D52280AD1C0B4000D02A70E4
:100C50000368001D002BE7D170BC704730B4012140
:100C60000268001D002A0FD00368C31844680830CA
:100C70000C4202D04D466D1E64191D6825601B1D77
:100C8000241D121FECD0F8E730BC70470321064842
:100C900002680A430260054802680A430260044889
:100CA00080470448004700002405004054050040E8
:100CB000310B0000610D000010B50749794418316F
:100CC000064C7C44163404E0081D0A6889188847DD
:100CD0000100A142F8D110BD08000000280000006A
:100CE00041FFFFFF54000000080800200000000042
:100CF0006DFFFFFF080000009400000000000020CE
:100D0000000000000120C046002801D0FFF7D4FFFA
:100D1000002000BF00BFFFF73BFD00F000F880B5EA
:100D200000F002F801BDFEE70746384600F002F881
:100D3000FBE7FEE780B500BF00BF024A11001820A4
:100D4000ABBEFBE7260002000A0D537461727420EB
:100D50003A0A0D0030313233343536373839000035
:100D600000BF00BF00BF00BFFFF7CCFF58203D20F1
:100D70000000000059203D20000000005A203D20C6
:100D8000000000002020202020200D00540D000035
:100D90000024F400FEE7FEE7FEE7FEE7FEE7FEE7DD
:100DA000FEE7FEE7FEE7FEE7FEE7FEE7FEE7FEE71B
:100DB000FEE7FEE7FEE7FEE7FEE7FEE7FEE7FEE70B
:060DC000FEE7FEE7FEE77E
:0400000500000D6189
:00000001FF
