:1000000010080020C5100000FF0600004B0E000085
:1000100000000000000000000000000000000000E0
:100020000000000000000000000000005F11000060
:1000300000000000000000006B110000D91100005A
:10004000DB110000DD110000DF110000E1110000F4
:10005000E311000000000000E5110000E7110000BE
:10006000E9110000EB110000ED110000EF1100009C
:10007000F1110000F3110000F5110000F71100006C
:10008000F9110000FB110000FD110000FF1100003C
:100090000112000003120000051200000712000008
:1000A000091200000B120000000000000000000018
:1000B0000000000000000000000000000000000040
:1000C000F7B504000D0050A20CCA00F0E9F81DD8E5
:1000D00050A003C822002B0000F0FBF800224C4B7C
:1000E00000F0B9F906000F004AA003C822002B0057
:1000F00000F0B1F902000B003000390000F085FA81
:1001000004000D0002980121014302912000290002
:100110000022424B00F0DAFA05D30122F9239B05B5
:1001200000F0BEF853D822002B0000F0D2F80600F1
:100130000F0032003B002000290000F0CAF80090B8
:10014000019137A003C832003B0000F0C2F836A28C
:100150000CCA00F080F932003B0000F0BAF834A27B
:100160000CCA00F078F9009A019B00F0B2F8220066
:100170002B0000F070F904000D002FA003C832001E
:100180003B0000F0A6F82EA20CCA00F064F9320081
:100190003B0000F09EF82CA20CCA00F05CF9320083
:1001A0003B0000F096F82AA20CCA00F054F9320085
:1001B0003B0000F08EF80022274B00F04CF90200C3
:1001C0000B002000290000F020FA04000D00029826
:1001D000800702D58020000645400298400709D0DC
:1001E0001FA1800E081803C822002B0000F033F96D
:1001F00004000D000298000702D58020000645404B
:100200002000290003B0F0BD57CD9E5E1426D13FDB
:100210000000F0BFAA4C58E87AB6FB3F000040BE91
:10022000845D57134B57B03FB2934C19ED5EE43FDA
:10023000BEDE02B90240F83FDE39028FC7C0743F0C
:100240008AAB1283000CC83F24D7E508B6D8F03F2C
:100250000F34580E5895FD3F0000F03F000000009D
:10026000000000000000000066732D3852C1E03F1E
:10027000182D4454FB21F93F66732D3852C1F03FCD
:10028000182D4454FB21F93F66732D3852C10040AC
:10029000182D4454FB2109403FD038C6A6F1044034
:1002A00030B4012464054D00EC420BD85D00EC42F3
:1002B00008D80C001C4364000443144304D28B424E
:1002C00000D1824230BC7047FCD09942FAD19042B2
:1002D000F8E7F0B50E005E400125ED072E40B4466C
:1002E000AE0ADF184C18F44208D2F7420ED2640D61
:1002F00001D07F0D12D100206146F0BD05D1F7423B
:1003000001D87F0D05D10020C143F0BDFBD1640DA4
:10031000F9D00020C143490549088FE0E419C9021A
:10032000DB0229432B43DB0A460DC00231438E46D4
:1003300030B487B295B27D432E0CADB2140C7C4321
:10034000A419260C240425439CB27C43A419190C3F
:100350007943270CC919A4B20F043C43090C000CC3
:1003600097B247432E0CBE193543ADB2170C474325
:10037000360CBF19A6B2BF193E043543240C3E0CFF
:1003800036199FB24743BF19BCB23E0C89191F0CE6
:1003900047437F183E043443390C704680B297B20D
:1003A00047432E0CBE193543ADB2170C4743360CEC
:1003B000BF19A6B2BF193E043543240C3E0C3619B2
:1003C0009FB24743BF19BCB23E0C89191F0C47436B
:1003D0007F183E043443390C77463F0C90B2784383
:1003E0002E0C80190604ADB22E43050CA0B22D18B8
:1003F000120C7A435019020C80B2240CA4189AB241
:100400007A43121914042043120C89181B0C7B43E5
:10041000C91830BCEF0A394203D1B61940414941ED
:10042000641E6F12BF0DE41B0BDBFF19BC4211DA17
:10043000240500274208AE417841614166463143B8
:10044000F0BD641C05D1401C6141CF0201D34908B5
:10045000F4E750E75DE7F0B40125ED070F005F40DA
:100460004FD48B4200D1824205D9844610006246A7
:100470008C4619006346DF184C18640D7F0D3AD086
:10048000661C760537D0E61B352E34DCDB022B43A9
:10049000DB0A0C0DC9022943C912202E0DDB1700FF
:1004A000203E06D01F00F741F3405F400026012A9E
:1004B0007741C01871410DD217E01700F741F240A3
:1004C0005740F3415A40B340F3405A400026801849
:1004D00059410AD3A21C52050FD0C207012F724105
:1004E00017004008CB0718434908641C240542083C
:1004F000AF4170416141F0BC7047641C2105002090
:10050000F9E76B4010E06B40ABE7F742F3D1E9430A
:10051000F1E72442EFD100200021ECE7F0B40125FF
:10052000ED070F005F40EED40C00871A9C4105D206
:10053000C01BA141D219634169406B40AE0ADF186C
:100540004C18F442E1D2640D7F0DE2D0E61B362E4A
:10055000D1DCDB022B43DB0AA4460C0DC902294384
:10056000C90A012E28DC04D1D6075208DF073A4316
:100570005B08EF0A76429041994114D039423BD151
:10058000B61940414941761C394204D1761C001805
:1005900049413942FAD0B9436746B74208D9A41B4A
:1005A00024052143A7E70042EAD13642E8D1A2E779
:1005B000E40AE10700209EE7202E0BDD203E1F000D
:1005C000F340F7415F40012A002257417E429841A3
:1005D00091410BE01700F741F2405740F3415A4078
:1005E000B340F3405A407E42904199410A0303D2FE
:1005F000641EB619404149410027641E2405420883
:10060000AE4178416141F0BC7047F0B40E005E40ED
:100610000125ED072E40B446AE0ADF184C18F4420F
:100620003BD2F74241D2640D43D07F0D38D0E41B5A
:10063000C902DB0229432B43CF0ADB0A0600B61AA4
:100640009F4104D2641EB6197F41B6185F416812FB
:10065000800D24180018844222DAE80C0021B61913
:100660007F41B61A9F4102D2B6185F413F1C4041FC
:100670004941F4D3241C21DD2405B6197F41B61A63
:100680009F4105D33743C60737430026012F7041EA
:10069000614166463143F0BC7047FCD1F74205D258
:1006A0000020C14349054908F3E704D00020C143B5
:1006B000F1E77F0DFAD000206146ECE72442FAD141
:1006C000401C61410F03F6D30020E2E730B401245F
:1006D00064054D00EC420BD85D00EC4208D80C00DC
:1006E0001C4364000443144304D2994200D1904255
:1006F00030BC7047FCD08B42FAD18242F8E7FEE76B
:100700000121654A04234343D1507047FEB50024BC
:1007100000250820FFF7F4FF00204E490860012063
:100720008021C90508604B4800680028FBD04A4872
:1007300000F0C2F800F0B9F95048484908600020BC
:10074000484908600120464908604648006800287A
:10075000FBD0002045490860012043490860434818
:1007600000680028FBD042480068012866D1434851
:10077000807807004148C078000206006846B91931
:1007800081803C4800F098F803220092019800B262
:1007900000F022FA3BA20CCAFFF79BFD009A00F082
:1007A0009CF836480079070034484079000206007A
:1007B000B81901A94880304800F07EF80322009261
:1007C00001A80221405E00F007FA2EA20CCAFFF732
:1007D00080FD009A00F081F82848807907002748BA
:1007E000C07900020600B81901A98880244800F0E9
:1007F00063F80322009201A80421405E00F0ECF9A6
:1008000020A20CCAFFF765FD009A00F066F801A867
:100810000421425E01A80221415E019800B200F06D
:10082000F5F904000D00194800F046F803222000F5
:10083000290000F052F8164800F03EF80020174951
:10084000086001201349086014480068002800D09F
:1008500072E7F9E700010040801100000415004034
:100860000410004000110040081000400C1100402E
:1008700000140040B0110000B81100001008002062
:10088000C0110000D5CC5A0A48FB2F3FC811000008
:10089000D01100001010004000070050101100405F
:1008A00000B5C0B25F4908605F4909680129FBD102
:1008B00000215D4A116000BD70B504000026A55DF1
:1008C000761CEDB2002D07D02800C0B2FFF7E8FF7C
:1008D000A05D0500761CF4E770BDF0B585B006009C
:1008E0000F0015000A243000390000220023FFF712
:1008F000EDFE0AD22D20FFF7D3FF00204B49320036
:100900003B00FFF7E6FC06000F0000206946087276
:100910006846007A2900C9B2884207D20A204443B7
:1009200068466946097A491C0172F1E7200000F027
:100930005DF9009001913000390000F0B9F900F044
:1009400055F902000B0030003900FFF7E7FD009A6F
:10095000019BFFF7BEFC00F0ABF9039003980A215E
:1009600000F0BDF9052902D303980A300390601EF8
:100970000399884209D200202D4932003B00FFF73D
:100980006AFD06000F00002003903000390000F0DF
:100990008FF900F028F8EDB2002D22D02C20FFF7BF
:1009A0007FFF2000642100F09AF9040003980A21D7
:1009B00000F095F903900398210000F090F90028C9
:1009C0000CD1EDB2022D09DB3020FFF769FF2000CA
:1009D0000A2100F084F904006D1EECE7039800F092
:1009E00002F805B0F0BD70B5050000241148066896
:1009F00028000A2100F073F9705C0F49E4B2085531
:100A000028000A2100F06BF90500641C002DEDD1CF
:100A1000641E0948E4B2005DFFF742FFE4B2002C17
:100A2000F6D170BD1C2500401C2100400000F0BF25
:100A30000000F03F000000204408002010B5010035
:100A4000002000231A00D2B2082A0CDAC9B20B0027
:100A500013411C00E407E40F07239B1A9C40044346
:100A60002000521CEFE7C0B210BDF8B5040000260C
:100A700000200500EDB2042D15DA0821694320009D
:100A8000C84007003800C0B2FFF7D8FF0700FFB228
:100A90001820EDB208216943411A380088403043DC
:100AA00006006D1CE6E73000F2BD38B5D8203749A6
:100AB0000860072036490860022036490860C320D4
:100AC000FFF7BCFF0400C220FFF7B8FF0500C120FC
:100AD000FFF7B4FFE4B22106EDB22A040A43C0B224
:100AE00004021443C020FFF7A9FF20432A490860ED
:100AF000C720FFF7A3FF0500C620FFF79FFF0400F4
:100B0000C520FFF79BFFEDB22906E4B222040A4399
:100B1000C0B204021443C420FFF790FF20431F49D2
:100B200008601F48FFF7A1FF1E4908601E48FFF735
:100B30009CFF1E49086000201D49086001201D49D6
:100B4000086000201C4908601C481D4908600220FC
:100B50001C4908601B4800688007800F022806D1E6
:100B600019481A4908601A481A4908600CE01548E3
:100B700000688007800F012806D1FF201349086014
:100B8000FF2008301349086031BD00000C150040FB
:100B9000081500401015004024150040281500409D
:100BA000674523011C150040EFCDAB89201500409F
:100BB0002C15004030150040141500400B0B0401AB
:100BC0001815004034150040FFFF00003C150040A0
:100BD0002110010038150040010009D5F4464042BB
:100BE00000F006F80122D20711436047010000BF60
:100BF00042221201D21E004207D002D4521E001817
:100C0000FCD5C10A4005120589187047F7B582B0B6
:100C1000029800B2FFF7E0FF04000D00039800B255
:100C2000FFF7DAFF6A4603C2083A049800B2FFF7FA
:100C3000D3FF06000F002000290022002B00FFF741
:100C400048FB04000D00684603C86A460CCAFFF75B
:100C500040FB22002B00FFF7FEFB04000D003000DC
:100C6000390032003B00FFF734FB22002B00FFF776
:100C7000F2FB00F08BF804000D00049800B2FFF7BF
:100C8000ABFF22002B00FFF7C0FC00F0DFF80022D2
:100C9000044BFFF71EFB04A20CCAFFF7B6FC05B01D
:100CA000F0BD000000806640F1D4C853FB2109402C
:100CB0004A1812D2400DC90208430121C90708434E
:100CC000520D40210901521A521C06D452421F32C1
:100CD00001D4D0407047C0177047002070470022F1
:100CE000030A8B420BD203098B4219D243088B4271
:100CF0002ED2411A00D20146524110467047FF22BF
:100D000009023FD012068B4205D3121209028B4210
:100D100001D31212090203098B4219D300E0090A18
:100D2000C3098B4201D3CB01C01A524183098B42C4
:100D300001D38B01C01A524143098B4201D34B01AD
:100D4000C01A524103098B4201D30B01C01A524110
:100D5000C3088B4201D3CB00C01A524183088B4297
:100D600001D38B00C01A524143088B4201D34B0080
:100D7000C01A5241884200D3401A5241CFD2014694
:100D80001046704708B5C046C04608BD012252054E
:100D90004B1850D2D3424DD25B0D4BD030B41C0512
:100DA000A14355082943D40AE41E1B195B0801D34B
:100DB000001849411B059C466C19091B0018494144
:100DC00000184941641900239202491B07D46D0899
:100DD0001DD2091B641900184941491BF7D56D083C
:100DE0000AD20919641B00184941491BEFD56D0847
:100DF000F7D301E0520817D0C01861419B1AAC41EB
:100E000000184941801AA941F4D452080AD0C01AE6
:100E1000A1419B186C4100184941801AA941E9D4AD
:100E20005208F4D15B1C6C415808E207104361087A
:100E3000614430BC70470020590DFBD0C943D342F8
:100E4000F8D802B500F082F802BDFEE7DCB5060076
:100E50000F007900490D3A4A914206D0002902D08C
:100E60000020C04309E0002007E03803000B3100F8
:100E7000014301D0022000E00120022802D130000D
:100E80003900DCBD3000390000220023FFF71EFCD2
:100E900004D2802000064740042400E002243000F1
:100EA000390028A20CCAFFF711FC1AD200202349EE
:100EB00032003B00FFF732FB0090019100201F49F8
:100EC00032003B00FFF7C7FA009A019BFFF701FAD7
:100ED000FFF75CFF6A4603C2300039006A460CCA5D
:100EE0001DE00122154BFFF7F1FB1ED20020194631
:100EF00032003B00FFF712FB0090019100200F49E8
:100F000032003B00FFF7A7FA009A019BFFF7E1F9D7
:100F1000FFF73CFF02226240140032003B00FFF763
:100F200074FB2200FFF7CCF8DCBD00F015F821219E
:100F300001600020C0434108DCBD00BF0000F03F5D
:100F4000FF070000CE3B7F669EA0E63F1FB500F086
:100F500003F8212101601FBD80B50248C046C0468C
:100F600002BD00000800002080B500F011F8002844
:100F700006D03148314908608020000230490860BD
:100F800000F03EF8002802D001202E49086001BD83
:100F900000B52D480078C0B201282FD12B48007829
:100FA0000007000F002829D129480078F0210140CE
:100FB000002907D127480078F0210140002901D1FC
:100FC00001201CE022480078F0210140102907D1BF
:100FD00020480078F0210140002901D101200EE0D5
:100FE0001B480078F0210140302907D119480078CA
:100FF000F0210140002901D1012000E0002000BDC6
:1010000000B511480078C0B2012813D10F4800780C
:101010000007000F00280DD10D480078F021014095
:10102000402907D10B480078F0210140002901D167
:10103000012000E0002000BDDFFF07C004050040E4
:10104000186C004008060040E00F00F0E40F00F0CC
:10105000E80F00F0EC0F00F070B40121002213E063
:101060000468001D0C4202D04D466D1E64192260BA
:10107000241D1B1F042BFAD225009E0701D52280B8
:10108000AD1C0B4000D02A700368001D002BE7D177
:1010900070BC704730B401210268001D002A0FD0D7
:1010A0000368C318446808300C4202D04D466D1ED8
:1010B00064191D6825601B1D241D121FECD0F8E764
:1010C00030BC70470321064802680A4302600548A5
:1010D00002680A4302600448804704480047000051
:1010E0002405004054050040690F000099110000DC
:1010F00010B5074979441831064C7C44163404E095
:10110000081D0A68891888470100A142F8D110BD5E
:10111000080000002800000041FFFFFF540000000D
:1011200010080020000000006DFFFFFF0C00000011
:101130007400000000000020000000000120C046F4
:10114000002801D0FFF7D4FF002000BF00BFFFF749
:10115000DDFA00F000F880B500F002F801BDFEE70E
:101160000746384600F002F8FBE7FEE780B500BF0F
:1011700000BF024A11001820ABBEFBE726000200A8
:101180000A0D5374617274203A0A0D003031323303
:10119000343536373839000000BF00BF00BF00BF0C
:1011A000FFF7CCFF8C1100000024F40000000000C9
:1011B00058203D2000000000203B2059203D200009
:1011C000203B205A203D2000203B2061203D200074
:1011D0002020202020200D00FEE7FEE7FEE7FEE7AE
:1011E000FEE7FEE7FEE7FEE7FEE7FEE7FEE7FEE7D7
:1011F000FEE7FEE7FEE7FEE7FEE7FEE7FEE7FEE7C7
:0C120000FEE7FEE7FEE7FEE7FEE7FEE784
:04000005000011994D
:00000001FF
