:10000000080800200D0E0000C70E0000D30E0000EF
:1000100000000000000000000000000000000000E0
:100020000000000000000000000000007D0F000044
:1000300000000000000000007F0F0000810F0000A2
:10004000830F0000850F0000870F0000890F00005C
:100050008B0F0000000000008D0F00008F0F0000CC
:10006000910F0000930F0000950F0000970F000004
:10007000990F00009B0F00009D0F00009F0F0000D4
:10008000A10F0000A30F0000A50F0000A70F0000A4
:10009000A90F0000AB0F0000AD0F0000AF0F000074
:1000A000B10F0000B30F00000000000000000000CE
:1000B0000000000000000000000000000000000040
:1000C0000121AB4A04234343D1507047F0B585B0BA
:1000D00000206946C880002000900B230A220921D5
:1000E000082000F075F900270820FFF7E9FF00203D
:1000F0008349086001208021C905086080480068A4
:100100000028FBD07F4800F052F900F09CFA8F489D
:100110007D49086000207E49086001207B49086015
:100120007B4800680028FBD000207B490860012044
:1001300078490860784800680028FBD07748006854
:10014000012800D0CFE081480078694648717F4897
:100150008078C0B27D49C978090240186946C880D4
:10016000019800140021C943884200D0B5E06846D8
:1001700076490979017169460420085601287CD125
:100180007248407905007148807900020400684691
:1001900029190181624800F00AF903221600029829
:1001A00000B200F0E7FA63A20CCA00F0FDFA3200D8
:1001B00000F048F96548C07905006448007A0002FB
:1001C0000400281902A94880564800F0F0F80322DC
:1001D000160002A80221405E00F0CCFA55A20CCA1B
:1001E00000F0E2FA320000F02DF95848407A05009C
:1001F0005648807A00020400281902A988804A48DB
:1002000000F0D5F80322160002A80421405E00F099
:10021000B1FA48A20CCA00F0C7FA320000F012F995
:10022000424800F0C4F8022216004848C07A00F0A4
:10023000ABFA47A20CCA00F0B7FA47A20CCA00F00A
:10024000B3FA320000F0FEF8394800F0B0F80322AB
:10025000160002A80421405E00F08CFA35A20CCAF8
:1002600000F0A2FA0022354B00F060FB320000F0F3
:10027000E9F833A000F09BF82BE06946042008560B
:10028000022823D12F4800F092F830484079070027
:1002900000221600FFB2380000F076FA320000F0BB
:1002A000D1F8294800F083F8022216002748807907
:1002B00000F06AFA26A20CCA00F076FA26A20CCA4E
:1002C00000F072FA320000F0BDF802E0244800F0BD
:1002D0006EF8244800F06BF805E0234800F067F85A
:1002E000204800F064F800202249086001201F49DE
:1002F000086020480068002800D008E7F9E70000FF
:1003000000010040180F00000415004004100040D8
:1003100000110040081000400C1100400014004083
:10032000540F00005C0F0000640F0000E80E000096
:10033000240F00004EC7AD9344408F3F000018408B
:10034000200A0000300F0000F80E0000080800200E
:100350008E0585419946733F52B81E85EB510E407C
:10036000840E00006C0F0000080F00001010004009
:1003700000070050101100400121854A0423434327
:10038000D150704710B4C9B28A00814B0424444351
:100390001A5110BC704700B5C0B27F4908607F4950
:1003A00009680129FBD100217C4A116000BD70B5AC
:1003B00004000026A55D761CEDB2002D07D02800B4
:1003C000C0B2FFF7E8FFA05D0500761CF4E770BD42
:1003D000F4B506000C001F00069DE4B22000FFF7F4
:1003E000CBFF0021FFB23800FFF7CCFFE4B26C482E
:1003F0000460FFB26B480760EDB2002D12D0F6B278
:100400003000FFF7B9FF002168460078FFF7BAFF18
:100410006846007864490860F6B2644806600120C6
:1004200063490860634864490860042063490860C0
:100430000120634908600120624908600020554995
:100440000860F1BDF0B585B006000F0015000A2464
:10045000300039000022002300F0C9FA0AD22D2012
:10046000FFF799FF0020584932003B0000F09CF94B
:1004700006000F000020694608726846007A2900CD
:10048000C9B2884207D20A20444368466946097ABD
:10049000491C0172F1E7200000F076F9009001910B
:1004A0003000390000F0BCFA00F06EF902000B00D9
:1004B0003000390000F02EFB009A019B00F074F927
:1004C00000F0AEFA039003980A2100F09AFB052988
:1004D00002D303980A300390601E0399884209D220
:1004E00000203A4932003B0000F0B1FA06000F004C
:1004F000002003903000390000F092FA00F028F854
:10050000EDB2002D22D02C20FFF745FF2000642102
:1005100000F077FB040003980A2100F072FB0390BF
:100520000398210000F06DFB00280CD1EDB2022DE4
:1005300009DB3020FFF72FFF20000A2100F061FBCC
:1005400004006D1EECE7039800F002F805B0F0BD62
:1005500070B5050000241E48066828000A2100F036
:1005600050FB705C1B49E4B2085528000A2100F0DA
:1005700048FB0500641C002DEDD1641E1548E4B253
:10058000005DFFF708FFE4B2002CF6D170BD00005B
:1005900000070050082100401C2500401C2100409D
:1005A0000C2500401425004010250040082500407F
:1005B0006C25004000E0D7012425004000250040C4
:1005C00008200040002000400000F0BF0000F03F85
:1005D000000000203C08002010B50100002000238E
:1005E0001A00D2B2082A0CDAC9B20B0013411C005F
:1005F000E407E40F07239B1A9C4004432000521C8D
:10060000EFE7C0B210BDF8B50400002600200500D9
:10061000EDB2042D15DA082169432000C840070017
:100620003800C0B2FFF7D8FF0700FFB21820EDB2C4
:1006300008216943411A38008840304306006D1C88
:10064000E6E73000F2BD38B5D8203749086007200A
:1006500036490860022036490860C320FFF7BCFF16
:100660000400C220FFF7B8FF0500C120FFF7B4FF68
:10067000E4B22106EDB22A040A43C0B204021443D4
:10068000C020FFF7A9FF20432A490860C720FFF7D1
:10069000A3FF0500C620FFF79FFF0400C520FFF75A
:1006A0009BFFEDB22906E4B222040A43C0B2040261
:1006B0001443C420FFF790FF20431F4908601F48E0
:1006C000FFF7A1FF1E4908601E48FFF79CFF1E4967
:1006D000086000201D49086001201D4908600020B5
:1006E0001C4908601C481D49086002201C4908601C
:1006F0001B4800688007800F022806D119481A4954
:1007000008601A481A4908600CE01548006880071C
:10071000800F012806D1FF2013490860FF20083010
:100720001349086031BD00000C1500400815004059
:10073000101500402415004028150040674523018E
:100740001C150040EFCDAB89201500402C15004052
:1007500030150040141500400D0D0401181500401F
:1007600034150040FFFF00003C150040211001003F
:1007700038150040010009D5F446404200F006F863
:100780000122D20711436047010000BF422212013B
:10079000D21E004207D002D4521E0018FCD5C10A56
:1007A0004005120589187047F0B50E005E4001251E
:1007B000ED072E40B446AE0ADF184C18F44208D2BA
:1007C000F7420ED2640D01D07F0D12D10020614698
:1007D000F0BD05D1F74201D87F0D05D10020C143FE
:1007E000F0BDFBD1640DF9D00020C1434905490893
:1007F0008FE0E419C902DB0229432B43DB0A460DD3
:10080000C00231438E4630B487B295B27D432E0C80
:10081000ADB2140C7C43A419260C240425439CB2CD
:100820007C43A419190C7943270CC919A4B20F04ED
:100830003C43090C000C97B247432E0CBE193543BC
:10084000ADB2170C4743360CBF19A6B2BF193E0410
:100850003543240C3E0C36199FB24743BF19BCB236
:100860003E0C89191F0C47437F183E043443390C52
:10087000704680B297B247432E0CBE193543ADB2D5
:10088000170C4743360CBF19A6B2BF193E043543B7
:10089000240C3E0C36199FB24743BF19BCB23E0C24
:1008A00089191F0C47437F183E043443390C77469F
:1008B0003F0C90B278432E0C80190604ADB22E4343
:1008C000050CA0B22D18120C7A435019020C80B2FC
:1008D000240CA4189AB27A43121914042043120C5F
:1008E00089181B0C7B43C91830BCEF0A394203D16D
:1008F000B61940414941641E6F12BF0DE41B0BDB6A
:10090000FF19BC4211DA240500274208AE417841A4
:10091000614166463143F0BD641C05D1401C614114
:10092000CF0201D34908F4E750E75DE7F0B40E00C9
:100930005E400125ED072E40B446AE0ADF184C1884
:10094000F4423BD2F74241D2640D43D07F0D38D000
:10095000E41BC902DB0229432B43CF0ADB0A060052
:10096000B61A9F4104D2641EB6197F41B6185F4182
:100970006812800D24180018844222DAE80C002145
:10098000B6197F41B61A9F4102D2B6185F413F1C8B
:1009900040414941F4D3241C21DD2405B6197F418F
:1009A000B61A9F4105D33743C60737430026012FA8
:1009B0007041614166463143F0BC7047FCD1F7425B
:1009C00005D20020C14349054908F3E704D00020BF
:1009D000C143F1E77F0DFAD000206146ECE72442E5
:1009E000FAD1401C61410F03F6D30020E2E730B496
:1009F000012464054D00EC420BD85D00EC4208D8A0
:100A00000C001C4364000443144304D2994200D1F7
:100A1000904230BC7047FCD08B42FAD18242F8E75A
:100A20004A1812D2400DC90208430121C9070843E0
:100A3000520D40210901521A521C06D452421F3253
:100A400001D4D0407047C017704700207047F0B401
:100A50000125ED070F005F404FD48B4200D1824249
:100A600005D98446100062468C4619006346DF189B
:100A70004C18640D7F0D3AD0661C760537D0E61B06
:100A8000352E34DCDB022B43DB0A0C0DC902294373
:100A9000C912202E0DDB1700203E06D01F00F741A3
:100AA000F3405F400026012A7741C01871410DD202
:100AB00017E01700F741F2405740F3415A40B34066
:100AC000F3405A400026801859410AD3A21C52050F
:100AD0000FD0C207012F724117004008CB071843FF
:100AE0004908641C24054208AF4170416141F0BCD3
:100AF0007047641C21050020F9E76B4010E06B4053
:100B0000ABE7F742F3D1E943F1E72442EFD100200C
:100B10000021ECE7F0B40125ED070F005F40EED4B3
:100B20000C00871A9C4105D2C01BA141D219634118
:100B300069406B40AE0ADF184C18F442E1D2640DF4
:100B40007F0DE2D0E61B362ED1DCDB022B43DB0A25
:100B5000A4460C0DC9022943C90A012E28DC04D180
:100B6000D6075208DF073A435B08EF0A7642904106
:100B7000994114D039423BD1B61940414941761CC4
:100B8000394204D1761C001849413942FAD0B943A0
:100B90006746B74208D9A41B24052143A7E70042B2
:100BA000EAD13642E8D1A2E7E40AE10700209EE755
:100BB000202E0BDD203E1F00F340F7415F40012A4D
:100BC000002257417E42984191410BE01700F741C6
:100BD000F2405740F3415A40B340F3405A407E42FE
:100BE000904199410A0303D2641EB619404149411C
:100BF0000027641E24054208AE4178416141F0BCE3
:100C000070470022030A8B420BD203098B4219D290
:100C100043088B422ED2411A00D20146524110465F
:100C20007047FF2209023FD012068B4205D31212F1
:100C300009028B4201D31212090203098B4219D314
:100C400000E0090AC3098B4201D3CB01C01A52410B
:100C500083098B4201D38B01C01A524143098B4255
:100C600001D34B01C01A524103098B4201D30B013E
:100C7000C01A5241C3088B4201D3CB00C01A524163
:100C800083088B4201D38B00C01A524143088B4228
:100C900001D34B00C01A5241884200D3401A52413E
:100CA000CFD201461046704708B5C046C04608BDC1
:100CB00080B500F011F8002806D0314831490860AD
:100CC000802000023049086000F03EF8002802D081
:100CD00001202E49086001BD00B52D480078C0B242
:100CE00001282FD12B4800780007000F002829D1B8
:100CF00029480078F0210140002907D127480078D1
:100D0000F0210140002901D101201CE02248007897
:100D1000F0210140102907D120480078F02101403E
:100D2000002901D101200EE01B480078F02101408C
:100D3000302907D119480078F0210140002901D15C
:100D4000012000E0002000BD00B511480078C0B2CD
:100D5000012813D10F4800780007000F00280DD19B
:100D60000D480078F0210140402907D10B48007858
:100D7000F0210140002901D1012000E0002000BD48
:100D8000DFFF07C004050040186C00400806004063
:100D9000E00F00F0E40F00F0E80F00F0EC0F00F0BF
:100DA00070B40121002213E00468001D0C4202D03F
:100DB0004D466D1E64192260241D1B1F042BFAD2A0
:100DC00025009E0701D52280AD1C0B4000D02A7063
:100DD0000368001D002BE7D170BC704730B40121BF
:100DE0000268001D002A0FD00368C3184468083049
:100DF0000C4202D04D466D1E64191D6825601B1DF6
:100E0000241D121FECD0F8E730BC704703210648C0
:100E100002680A430260054802680A430260044807
:100E20008047044800470000240500405405004066
:100E3000B10C0000490F000010B507497944183182
:100E4000064C7C44163404E0081D0A68891888475B
:100E50000100A142F8D110BD0800000028000000E8
:100E600041FFFFFF540000000808002000000000C0
:100E70006DFFFFFF08000000FC00000000000020E4
:100E8000000000004572726F72202120446174617D
:100E900020494420646F6573206E6F742066697406
:100EA000000000000120C046002801D0FFF7C4FF69
:100EB000002000BF00BFFFF709F900F000F880B57F
:100EC00000F002F801BDFEE70746384600F002F8E0
:100ED000FBE7FEE780B500BF00BF024A1100182003
:100EE000ABBEFBE726000200206C766C20626174CA
:100EF00074657279203D20006C766C206261747498
:100F0000657279203D2000004F746865722075730A
:100F100065722049440000000A0D53746172742008
:100F20003A0A0D00207370656564203D20000000C2
:100F3000436F756E74203D20000000003031323365
:100F4000343536373839000000BF00BF00BF00BF5E
:100F5000FFF7A8FF58203D2000000000203B20594B
:100F6000203D2000203B205A203D20002020202032
:100F700020200D003C0F00000024F400FEE7FEE7F7
:100F8000FEE7FEE7FEE7FEE7FEE7FEE7FEE7FEE739
:100F9000FEE7FEE7FEE7FEE7FEE7FEE7FEE7FEE729
:100FA000FEE7FEE7FEE7FEE7FEE7FEE7FEE7FEE719
:040FB000FEE7FEE773
:0400000500000F499F
:00000001FF
