:1000000010080020C1110000570D0000631000000F
:1000100000000000000000000000000000000000E0
:100020000000000000000000000000005B12000063
:10003000000000000000000067120000D512000060
:10004000D7120000D9120000DB120000DD12000000
:10005000DF12000000000000E1120000E3120000C7
:10006000E5120000E7120000E9120000EB120000A8
:10007000ED120000EF120000F1120000F312000078
:10008000F5120000F7120000F9120000FB12000048
:10009000FD120000FF120000011300000313000016
:1000A000051300000713000000000000000000001E
:1000B0000000000000000000000000000000000040
:1000C00001219C4A04234343D1507047F0B589B0C5
:1000D000002000900B230A220921082000F05AF981
:1000E0000020002104AA03C2083A0820FFF7E8FF15
:1000F00000207B49086001208021C90508607848FC
:1001000000680028FBD0774800F033F900F07DFA52
:100110007E487549086000207549086001207349D0
:100120000860734800680028FBD00020724908600E
:10013000012070490860704800680028FBD06F48B3
:100140000068012800D0BFE0684670498978C18006
:1001500068466E49C9780902818068460199091488
:10016000019A12B289180181654800F002F9032250
:100170001400029800B200F0DFFA66A20CCA00F088
:10018000F5FA220000F040F95FA000F0F2F86846AE
:100190005E490979C18068465C49497909028180D4
:1001A00001980014019909B2401802A948805548E5
:1001B00000F0DFF80322140002A80221405E00F0E4
:1001C000BBFA54A20CCA00F0D1FA220000F01CF9CC
:1001D0004DA000F0CEF868464C498979C180684648
:1001E0004A49C9790902818001980014019909B22C
:1001F000401802A98880464800F0BBF8032214008A
:1002000002A80421405E00F097FA42A20CCA00F056
:10021000ADFA220000F0F8F8029800B200F08CFA73
:1002200004000D0002A80221405E00F085FA06AA33
:1002300003C2083A02A80421405E00F07DFA0600DD
:100240000F002000290022002B0000F08FFA04008C
:100250000D0006A803C806AA0CCA00F087FA2200FF
:100260002B0000F045FB04000D0030003900320087
:100270003B0000F07BFA22002B0000F039FB00F07D
:1002800011FC04000D0002A80421405E00F054FAA5
:1002900022002B0000F065FC00F0C4FC00221F4B84
:1002A00000F064FA1EA20CCA00F05BFC04AA03C2B0
:1002B000083A1D4800F05DF8032204A803C800F0C6
:1002C000A3F81A4800F055F800201B4908600120E7
:1002D0001749086018480068002800D018E7F9E7B7
:1002E000000100407C120000041500400410004092
:1002F00000110040081000400C11004000140040A4
:10030000AC120000B4120000203B200010080020B6
:10031000BC120000D5CC5A0A48FB2F3F0080664033
:10032000F1D4C853FB210940C4120000CC120000D4
:100330001010004000070050101100400121854AB4
:1003400004234343D150704710B4C9B28A00814B93
:10035000042444431A5110BC704700B5C0B27F4911
:1003600008607F4909680129FBD100217C4A11609E
:1003700000BD70B504000026A55D761CEDB2002D11
:1003800007D02800C0B2FFF7E8FFA05D0500761C8B
:10039000F4E770BDF4B506000C001F00069DE4B242
:1003A0002000FFF7CBFF0021FFB23800FFF7CCFFA2
:1003B000E4B26C480460FFB26B480760EDB2002DF8
:1003C00012D0F6B23000FFF7B9FF0021684600787E
:1003D000FFF7BAFF6846007864490860F6B26448DF
:1003E000066001206349086063486449086004208E
:1003F0006349086001206349086001206249086080
:10040000002055490860F1BDF0B585B006000F0029
:1004100015000A24300039000022002300F082FC7D
:100420000AD22D20FFF799FF0020584932003B00E7
:1004300000F09CF906000F0000206946087268462B
:10044000007A2900C9B2884207D20A20444368468C
:100450006946097A491C0172F1E7200000F076F93B
:10046000009001913000390000F076FC00F06EF948
:1004700002000B003000390000F09DFA009A019B49
:1004800000F074F900F068FC039003980A2100F072
:100490007AFC052902D303980A300390601E039961
:1004A000884209D200203A4932003B0000F020FA8D
:1004B00006000F00002003903000390000F04CFCD3
:1004C00000F028F8EDB2002D22D02C20FFF745FFD8
:1004D0002000642100F057FC040003980A2100F07A
:1004E00052FC03900398210000F04DFC00280CD131
:1004F000EDB2022D09DB3020FFF72FFF20000A218B
:1005000000F041FC04006D1EECE7039800F002F8D7
:1005100005B0F0BD70B5050000241E48066828002F
:100520000A2100F030FC705C1B49E4B20855280039
:100530000A2100F028FC0500641C002DEDD1641E8A
:100540001548E4B2005DFFF708FFE4B2002CF6D1D5
:1005500070BD000000070050082100401C2500402D
:100560001C2100400C2500401425004010250040AF
:10057000082500406C25004000E0D70124250040FC
:100580000025004008200040002000400000F0BF8F
:100590000000F03F000000204408002010B50100DA
:1005A000002000231A00D2B2082A0CDAC9B20B00CC
:1005B00013411C00E407E40F07239B1A9C400443EB
:1005C0002000521CEFE7C0B210BDF8B504000026B1
:1005D00000200500EDB2042D15DA08216943200042
:1005E000C84007003800C0B2FFF7D8FF0700FFB2CD
:1005F0001820EDB208216943411A38008840304381
:1006000006006D1CE6E73000F2BD38B5D82037494A
:100610000860072036490860022036490860C32078
:10062000FFF7BCFF0400C220FFF7B8FF0500C120A0
:10063000FFF7B4FFE4B22106EDB22A040A43C0B2C8
:1006400004021443C020FFF7A9FF20432A49086091
:10065000C720FFF7A3FF0500C620FFF79FFF040098
:10066000C520FFF79BFFEDB22906E4B222040A433E
:10067000C0B204021443C420FFF790FF20431F4977
:1006800008601F48FFF7A1FF1E4908601E48FFF7DA
:100690009CFF1E49086000201D49086001201D497B
:1006A000086000201C4908601C481D4908600220A1
:1006B0001C4908601B4800688007800F022806D18B
:1006C00019481A4908601A481A4908600CE0154888
:1006D00000688007800F012806D1FF2013490860B9
:1006E000FF2008301349086031BD00000C150040A0
:1006F0000815004010150040241500402815004042
:10070000674523011C150040EFCDAB892015004043
:100710002C15004030150040141500400B0B04014F
:100720001815004034150040FFFF00003C15004044
:100730002110010038150040010009D5F44640425F
:1007400000F006F80122D20711436047010000BF04
:1007500042221201D21E004207D002D4521E0018BB
:10076000FCD5C10A4005120589187047F0B50E0086
:100770005E400125ED072E40B446AE0ADF184C1846
:10078000F44208D2F7420ED2640D01D07F0D12D18F
:1007900000206146F0BD05D1F74201D87F0D05D19B
:1007A0000020C143F0BDFBD1640DF9D00020C1434E
:1007B000490549088FE0E419C902DB0229432B43AC
:1007C000DB0A460DC00231438E4630B487B295B283
:1007D0007D432E0CADB2140C7C43A419260C2404CA
:1007E00025439CB27C43A419190C7943270CC919E1
:1007F000A4B20F043C43090C000C97B247432E0CE3
:10080000BE193543ADB2170C4743360CBF19A6B21B
:10081000BF193E043543240C3E0C36199FB24743A2
:10082000BF19BCB23E0C89191F0C47437F183E0408
:100830003443390C704680B297B247432E0CBE1930
:100840003543ADB2170C4743360CBF19A6B2BF19DA
:100850003E043543240C3E0C36199FB24743BF1962
:10086000BCB23E0C89191F0C47437F183E04344329
:10087000390C77463F0C90B278432E0C8019060451
:10088000ADB22E43050CA0B22D18120C7A435019AC
:10089000020C80B2240CA4189AB27A4312191404E0
:1008A0002043120C89181B0C7B43C91830BCEF0A7B
:1008B000394203D1B61940414941641E6F12BF0D40
:1008C000E41B0BDBFF19BC4211DA240500274208A8
:1008D000AE417841614166463143F0BD641C05D1AB
:1008E000401C6141CF0201D34908F4E750E75DE7BE
:1008F000F0B40125ED070F005F404FD48B4200D1CB
:10090000824205D98446100062468C46190063462F
:10091000DF184C18640D7F0D3AD0661C760537D071
:10092000E61B352E34DCDB022B43DB0A0C0DC9023F
:100930002943C912202E0DDB1700203E06D01F00D0
:10094000F741F3405F400026012A7741C01871410A
:100950000DD217E01700F741F2405740F3415A40DB
:10096000B340F3405A400026801859410AD3A21CD4
:1009700052050FD0C207012F724117004008CB0764
:1009800018434908641C24054208AF417041614185
:10099000F0BC7047641C21050020F9E76B4010E0B3
:1009A0006B40ABE7F742F3D1E943F1E72442EFD1E3
:1009B00000200021ECE7F0B40125ED070F005F40B7
:1009C000EED40C00871A9C4105D2C01BA141D2195C
:1009D000634169406B40AE0ADF184C18F442E1D223
:1009E000640D7F0DE2D0E61B362ED1DCDB022B43FB
:1009F000DB0AA4460C0DC9022943C90A012E28DCD2
:100A000004D1D6075208DF073A435B08EF0A764263
:100A10009041994114D039423BD1B61940414941E6
:100A2000761C394204D1761C001849413942FAD06B
:100A3000B9436746B74208D9A41B24052143A7E759
:100A40000042EAD13642E8D1A2E7E40AE1070020F9
:100A50009EE7202E0BDD203E1F00F340F7415F4054
:100A6000012A002257417E42984191410BE0170034
:100A7000F741F2405740F3415A40B340F3405A40E7
:100A80007E42904199410A0303D2641EB619404147
:100A900049410027641E24054208AE417841614166
:100AA000F0BC7047012252054B1850D2D3424DD2B0
:100AB0005B0D4BD030B41C05A14355082943D40A23
:100AC000E41E1B195B0801D3001849411B059C4615
:100AD0006C19091B00184941001849416419002389
:100AE0009202491B07D46D081DD2091B6419001816
:100AF0004941491BF7D56D080AD20919641B001832
:100B00004941491BEFD56D08F7D301E0520817D0D2
:100B1000C01861419B1AAC4100184941801AA94193
:100B2000F4D452080AD0C01AA1419B186C41001895
:100B30004941801AA941E9D45208F4D15B1C6C41A7
:100B40005808E20710436108614430BC7047002038
:100B5000590DFBD0C943D342F8D802B500F06AF969
:100B600002BDF0B40E005E400125ED072E40B446F4
:100B7000AE0ADF184C18F4423BD2F74241D2640D62
:100B800043D07F0D38D0E41BC902DB0229432B433D
:100B9000CF0ADB0A0600B61A9F4104D2641EB619BA
:100BA0007F41B6185F416812800D241800188442F6
:100BB00022DAE80C0021B6197F41B61A9F4102D211
:100BC000B6185F413F1C40414941F4D3241C21DD4C
:100BD0002405B6197F41B61A9F4105D33743C6078E
:100BE00037430026012F7041614166463143F0BC16
:100BF0007047FCD1F74205D20020C143490549089E
:100C0000F3E704D00020C143F1E77F0DFAD00020C4
:100C10006146ECE72442FAD1401C61410F03F6D350
:100C20000020E2E7DCB506000F007900490D3A4AE2
:100C3000914206D0002902D00020C04309E00020E4
:100C400007E03803000B3100014301D0022000E02F
:100C50000120022802D130003900DCBD300039000B
:100C60000022002300F05EF804D2802000064740F6
:100C7000042400E002243000390028A20CCA00F04D
:100C800051F81AD20020234932003B00FFF793FEAF
:100C90000090019100201F4932003B00FFF728FE21
:100CA000009A019BFFF762FDFFF7FCFE6A4603C254
:100CB000300039006A460CCA1DE00122154B00F0D5
:100CC00031F81ED20020194632003B00FFF773FEB8
:100CD0000090019100200F4932003B00FFF708FE11
:100CE000009A019BFFF742FDFFF7DCFE0222624003
:100CF000140032003B00FFF734FF220000F0A0F8A0
:100D0000DCBD00F08DF9212101600020C0434108C5
:100D1000DCBD00BF0000F03FFF070000CE3B7F6658
:100D20009EA0E63F30B4012464054D00EC420BD890
:100D30005D00EC4208D80C001C43640004431443DB
:100D400004D2994200D1904230BC7047FCD08B4213
:100D5000FAD18242F8E7FEE74A1812D2400DC902E2
:100D600008430121C9070843520D40210901521AC5
:100D7000521C06D452421F3201D4D0407047C017D3
:100D80007047002070470022030A8B420BD20309F0
:100D90008B4219D243088B422ED2411A00D201460F
:100DA000524110467047FF2209023FD012068B4283
:100DB00005D3121209028B4201D312120902030950
:100DC0008B4219D300E0090AC3098B4201D3CB013E
:100DD000C01A524183098B4201D38B01C01A524180
:100DE00043098B4201D34B01C01A524103098B4284
:100DF00001D30B01C01A5241C3088B4201D3CB006F
:100E0000C01A524183088B4201D38B00C01A524151
:100E100043088B4201D34B00C01A5241884200D391
:100E2000401A5241CFD201461046704708B5C0461D
:100E3000C04608BD1FB500F0F3F8212101601FBDB9
:100E4000F7B504000D0050A20CCA00F0F1F81DD84F
:100E500050A003C822002B00FFF788FC00224C4B57
:100E6000FFF746FD06000F004AA003C822002B0032
:100E7000FFF73EFD02000B0030003900FFF771FE66
:100E800004000D0002980121014302912000290075
:100E90000022424BFFF746FF05D30122F9239B05B1
:100EA00000F0C6F853D822002B00FFF75FFC0600C5
:100EB0000F0032003B0020002900FFF757FC009094
:100EC000019137A003C832003B00FFF74FFC36A268
:100ED0000CCAFFF70DFD32003B00FFF747FC34A2C0
:100EE0000CCAFFF705FD009A019BFFF73FFC2200AB
:100EF0002B00FFF7FDFC04000D002FA003C83200FB
:100F00003B00FFF733FC2EA20CCAFFF7F1FC3200C6
:100F10003B00FFF72BFC2CA20CCAFFF7E9FC3200C8
:100F20003B00FFF723FC2AA20CCAFFF7E1FC3200CA
:100F30003B00FFF71BFC0022274BFFF7D9FC020008
:100F40000B0020002900FFF70CFE04000D000298A2
:100F5000800702D58020000645400298400709D04E
:100F60001FA1800E081803C822002B00FFF7C0FC49
:100F700004000D000298000702D5802000064540BD
:100F80002000290003B0F0BD57CD9E5E1426D13F4E
:100F90000000F0BFAA4C58E87AB6FB3F000040BE04
:100FA000845D57134B57B03FB2934C19ED5EE43F4D
:100FB000BEDE02B90240F83FDE39028FC7C0743F7F
:100FC0008AAB1283000CC83F24D7E508B6D8F03F9F
:100FD0000F34580E5895FD3F0000F03F0000000010
:100FE000000000000000000066732D3852C1E03F91
:100FF000182D4454FB21F93F66732D3852C1F03F40
:10100000182D4454FB21F93F66732D3852C100401E
:10101000182D4454FB2109403FD038C6A6F10440A6
:1010200080B50248C046C04602BD0000080000204E
:1010300030B4012464054D00EC420BD85D00EC4255
:1010400008D80C001C4364000443144304D28B42B0
:1010500000D1824230BC7047FCD09942FAD1904214
:10106000F8E7FEE780B500F011F8002806D0314817
:1010700031490860802000023049086000F03EF8E5
:10108000002802D001202E49086001BD00B52D487E
:101090000078C0B201282FD12B4800780007000F3C
:1010A000002829D129480078F0210140002907D1E2
:1010B00027480078F0210140002901D101201CE0DF
:1010C00022480078F0210140102907D120480078FB
:1010D000F0210140002901D101200EE01B480078D9
:1010E000F0210140302907D119480078F021014052
:1010F000002901D1012000E0002000BD00B5114809
:101100000078C0B2012813D10F4800780007000F03
:1011100000280DD10D480078F0210140402907D169
:101120000B480078F0210140002901D1012000E0A6
:10113000002000BDDFFF07C004050040186C004020
:1011400008060040E00F00F0E40F00F0E80F00F0A8
:10115000EC0F00F070B40121002213E00468001DC0
:101160000C4202D04D466D1E64192260241D1B1FC7
:10117000042BFAD225009E0701D52280AD1C0B401E
:1011800000D02A700368001D002BE7D170BC7047A7
:1011900030B401210268001D002A0FD00368C31873
:1011A000446808300C4202D04D466D1E64191D681B
:1011B00025601B1D241D121FECD0F8E730BC7047C2
:1011C0000321064802680A430260054802680A4390
:1011D000026004488047044800470000240500409E
:1011E00054050040651000009512000010B5074935
:1011F00079441831064C7C44163404E0081D0A6812
:10120000891888470100A142F8D110BD08000000EC
:101210002800000041FFFFFF5400000010080020DC
:10122000000000006DFFFFFF0C00000074000000D4
:1012300000000020000000000120C046002801D06E
:10124000FFF7D4FF002000BF00BFFEF73FFF00F014
:1012500000F880B500F002F801BDFEE70746384609
:1012600000F002F8FBE7FEE780B500BF00BF024ACE
:1012700011001820ABBEFBE7260002000A0D5374D4
:10128000617274203A0A0D0030313233343536370A
:101290003839000000BF00BF00BF00BFFFF7CCFF20
:1012A000881200000024F4000000000058203D20B7
:1012B0000000000059203D20000000005A203D2081
:1012C00000000000203B2061203D20002020202045
:1012D00020200D00FEE7FEE7FEE7FEE7FEE7FEE763
:1012E000FEE7FEE7FEE7FEE7FEE7FEE7FEE7FEE7D6
:1012F000FEE7FEE7FEE7FEE7FEE7FEE7FEE7FEE7C6
:08130000FEE7FEE7FEE7FEE751
:040000050000129550
:00000001FF
